{
  "contractName": "Information",
  "abi": [
    {
      "inputs": [],
      "payable": false,
      "stateMutability": "nonpayable",
      "type": "constructor",
      "signature": "constructor"
    },
    {
      "payable": false,
      "stateMutability": "nonpayable",
      "type": "fallback"
    },
    {
      "anonymous": false,
      "inputs": [
        {
          "indexed": false,
          "name": "id",
          "type": "uint256"
        },
        {
          "indexed": false,
          "name": "title",
          "type": "string"
        },
        {
          "indexed": false,
          "name": "style",
          "type": "string"
        },
        {
          "indexed": false,
          "name": "text",
          "type": "string"
        },
        {
          "indexed": false,
          "name": "cover",
          "type": "string"
        },
        {
          "indexed": false,
          "name": "date",
          "type": "uint256"
        }
      ],
      "name": "publishSuccess",
      "type": "event",
      "signature": "0x644fd09f4703159b17f75cd91e6575de69994ad4e6db0a673c0f5d67379573b8"
    },
    {
      "anonymous": false,
      "inputs": [
        {
          "indexed": false,
          "name": "id",
          "type": "uint256"
        },
        {
          "indexed": false,
          "name": "addr",
          "type": "address"
        },
        {
          "indexed": false,
          "name": "score",
          "type": "uint256"
        }
      ],
      "name": "evaluateSuccess",
      "type": "event",
      "signature": "0x0188d9c8488eedcb649a5a94479208fdd077082f814ffe3df1b1b5c7c1216311"
    },
    {
      "constant": true,
      "inputs": [],
      "name": "getCommentedNews",
      "outputs": [
        {
          "name": "",
          "type": "uint256[]"
        }
      ],
      "payable": false,
      "stateMutability": "view",
      "type": "function",
      "signature": "0xe969660d"
    },
    {
      "constant": true,
      "inputs": [],
      "name": "getPublishedNews",
      "outputs": [
        {
          "name": "",
          "type": "uint256[]"
        }
      ],
      "payable": false,
      "stateMutability": "view",
      "type": "function",
      "signature": "0x9807e78c"
    },
    {
      "constant": true,
      "inputs": [],
      "name": "getNewsLength",
      "outputs": [
        {
          "name": "",
          "type": "uint256"
        }
      ],
      "payable": false,
      "stateMutability": "view",
      "type": "function",
      "signature": "0xfb9ff047"
    },
    {
      "constant": true,
      "inputs": [
        {
          "name": "id",
          "type": "uint256"
        }
      ],
      "name": "getCommentLength",
      "outputs": [
        {
          "name": "",
          "type": "uint256"
        }
      ],
      "payable": false,
      "stateMutability": "view",
      "type": "function",
      "signature": "0x1f5a5cd5"
    },
    {
      "constant": true,
      "inputs": [
        {
          "name": "id",
          "type": "uint256"
        }
      ],
      "name": "getNewsInfo",
      "outputs": [
        {
          "name": "",
          "type": "address"
        },
        {
          "name": "",
          "type": "string"
        },
        {
          "name": "",
          "type": "string"
        },
        {
          "name": "",
          "type": "string"
        },
        {
          "name": "",
          "type": "string"
        },
        {
          "name": "",
          "type": "uint256"
        },
        {
          "name": "",
          "type": "uint256"
        }
      ],
      "payable": false,
      "stateMutability": "view",
      "type": "function",
      "signature": "0x54e07ad0"
    },
    {
      "constant": true,
      "inputs": [
        {
          "name": "gid",
          "type": "uint256"
        },
        {
          "name": "cid",
          "type": "uint256"
        }
      ],
      "name": "getCommentInfo",
      "outputs": [
        {
          "name": "",
          "type": "address"
        },
        {
          "name": "",
          "type": "uint256"
        },
        {
          "name": "",
          "type": "uint256"
        },
        {
          "name": "",
          "type": "string"
        }
      ],
      "payable": false,
      "stateMutability": "view",
      "type": "function",
      "signature": "0x9fae3010"
    },
    {
      "constant": true,
      "inputs": [
        {
          "name": "id",
          "type": "uint256"
        }
      ],
      "name": "isEvaluated",
      "outputs": [
        {
          "name": "",
          "type": "bool"
        }
      ],
      "payable": false,
      "stateMutability": "view",
      "type": "function",
      "signature": "0x550ca61d"
    },
    {
      "constant": false,
      "inputs": [
        {
          "name": "title",
          "type": "string"
        },
        {
          "name": "style",
          "type": "string"
        },
        {
          "name": "text",
          "type": "string"
        },
        {
          "name": "cover",
          "type": "string"
        }
      ],
      "name": "publish",
      "outputs": [],
      "payable": false,
      "stateMutability": "nonpayable",
      "type": "function",
      "signature": "0x1da879d8"
    },
    {
      "constant": false,
      "inputs": [
        {
          "name": "id",
          "type": "uint256"
        },
        {
          "name": "score",
          "type": "uint256"
        },
        {
          "name": "content",
          "type": "string"
        }
      ],
      "name": "evaluate",
      "outputs": [],
      "payable": false,
      "stateMutability": "nonpayable",
      "type": "function",
      "signature": "0x7157eb66"
    }
  ],
  "bytecode": "0x608060405234801561001057600080fd5b506116b0806100206000396000f3fe608060405260043610610099576000357c0100000000000000000000000000000000000000000000000000000000900463ffffffff1680631da879d8146100ab5780631f5a5cd51461033857806354e07ad014610387578063550ca61d146105c05780637157eb66146106135780639807e78c146106ef5780639fae30101461075b578063e969660d1461085a578063fb9ff047146108c6575b3480156100a557600080fd5b50600080fd5b3480156100b757600080fd5b50610336600480360360808110156100ce57600080fd5b81019080803590602001906401000000008111156100eb57600080fd5b8201836020820111156100fd57600080fd5b8035906020019184600183028401116401000000008311171561011f57600080fd5b91908080601f016020809104026020016040519081016040528093929190818152602001838380828437600081840152601f19601f8201169050808301925050505050505091929192908035906020019064010000000081111561018257600080fd5b82018360208201111561019457600080fd5b803590602001918460018302840111640100000000831117156101b657600080fd5b91908080601f016020809104026020016040519081016040528093929190818152602001838380828437600081840152601f19601f8201169050808301925050505050505091929192908035906020019064010000000081111561021957600080fd5b82018360208201111561022b57600080fd5b8035906020019184600183028401116401000000008311171561024d57600080fd5b91908080601f016020809104026020016040519081016040528093929190818152602001838380828437600081840152601f19601f820116905080830192505050505050509192919290803590602001906401000000008111156102b057600080fd5b8201836020820111156102c257600080fd5b803590602001918460018302840111640100000000831117156102e457600080fd5b91908080601f016020809104026020016040519081016040528093929190818152602001838380828437600081840152601f19601f8201169050808301925050505050505091929192905050506108f1565b005b34801561034457600080fd5b506103716004803603602081101561035b57600080fd5b8101908080359060200190929190505050610ccc565b6040518082815260200191505060405180910390f35b34801561039357600080fd5b506103c0600480360360208110156103aa57600080fd5b8101908080359060200190929190505050610cf5565b604051808873ffffffffffffffffffffffffffffffffffffffff1673ffffffffffffffffffffffffffffffffffffffff1681526020018060200180602001806020018060200187815260200186815260200185810385528b818151815260200191508051906020019080838360005b8381101561044a57808201518184015260208101905061042f565b50505050905090810190601f1680156104775780820380516001836020036101000a031916815260200191505b5085810384528a818151815260200191508051906020019080838360005b838110156104b0578082015181840152602081019050610495565b50505050905090810190601f1680156104dd5780820380516001836020036101000a031916815260200191505b50858103835289818151815260200191508051906020019080838360005b838110156105165780820151818401526020810190506104fb565b50505050905090810190601f1680156105435780820380516001836020036101000a031916815260200191505b50858103825288818151815260200191508051906020019080838360005b8381101561057c578082015181840152602081019050610561565b50505050905090810190601f1680156105a95780820380516001836020036101000a031916815260200191505b509b50505050505050505050505060405180910390f35b3480156105cc57600080fd5b506105f9600480360360208110156105e357600080fd5b8101908080359060200190929190505050610ffc565b604051808215151515815260200191505060405180910390f35b34801561061f57600080fd5b506106ed6004803603606081101561063657600080fd5b8101908080359060200190929190803590602001909291908035906020019064010000000081111561066757600080fd5b82018360208201111561067957600080fd5b8035906020019184600183028401116401000000008311171561069b57600080fd5b91908080601f016020809104026020016040519081016040528093929190818152602001838380828437600081840152601f19601f8201169050808301925050505050505091929192905050506110c0565b005b3480156106fb57600080fd5b506107046112ea565b6040518080602001828103825283818151815260200191508051906020019060200280838360005b8381101561074757808201518184015260208101905061072c565b505050509050019250505060405180910390f35b34801561076757600080fd5b5061079e6004803603604081101561077e57600080fd5b810190808035906020019092919080359060200190929190505050611382565b604051808573ffffffffffffffffffffffffffffffffffffffff1673ffffffffffffffffffffffffffffffffffffffff16815260200184815260200183815260200180602001828103825283818151815260200191508051906020019080838360005b8381101561081c578082015181840152602081019050610801565b50505050905090810190601f1680156108495780820380516001836020036101000a031916815260200191505b509550505050505060405180910390f35b34801561086657600080fd5b5061086f6114df565b6040518080602001828103825283818151815260200191508051906020019060200280838360005b838110156108b2578082015181840152602081019050610897565b505050509050019250505060405180910390f35b3480156108d257600080fd5b506108db611577565b6040518082815260200191505060405180910390f35b600080805490509050610902611583565b610100604051908101604052803373ffffffffffffffffffffffffffffffffffffffff16815260200187815260200186815260200185815260200184815260200142815260200160008152602001600081525090506000819080600181540180825580915050906001820390600052602060002090600902016000909192909190915060008201518160000160006101000a81548173ffffffffffffffffffffffffffffffffffffffff021916908373ffffffffffffffffffffffffffffffffffffffff16021790555060208201518160010190805190602001906109e89291906115df565b506040820151816002019080519060200190610a059291906115df565b506060820151816003019080519060200190610a229291906115df565b506080820151816004019080519060200190610a3f9291906115df565b5060a0820151816005015560c0820151816006015560e08201518160070155505050600160003373ffffffffffffffffffffffffffffffffffffffff1673ffffffffffffffffffffffffffffffffffffffff1681526020019081526020016000206000018290806001815401808255809150509060018203906000526020600020016000909192909190915055507f644fd09f4703159b17f75cd91e6575de69994ad4e6db0a673c0f5d67379573b882878787878660a00151604051808781526020018060200180602001806020018060200186815260200185810385528a818151815260200191508051906020019080838360005b83811015610b50578082015181840152602081019050610b35565b50505050905090810190601f168015610b7d5780820380516001836020036101000a031916815260200191505b50858103845289818151815260200191508051906020019080838360005b83811015610bb6578082015181840152602081019050610b9b565b50505050905090810190601f168015610be35780820380516001836020036101000a031916815260200191505b50858103835288818151815260200191508051906020019080838360005b83811015610c1c578082015181840152602081019050610c01565b50505050905090810190601f168015610c495780820380516001836020036101000a031916815260200191505b50858103825287818151815260200191508051906020019080838360005b83811015610c82578082015181840152602081019050610c67565b50505050905090810190601f168015610caf5780820380516001836020036101000a031916815260200191505b509a505050505050505050505060405180910390a1505050505050565b60008082815481101515610cdc57fe5b9060005260206000209060090201600701549050919050565b600060608060608060008060008054905088101515610d1357600080fd5b60008089815481101515610d2357fe5b906000526020600020906009020190508060000160009054906101000a900473ffffffffffffffffffffffffffffffffffffffff168160010182600201836003018460040185600601548660050154858054600181600116156101000203166002900480601f016020809104026020016040519081016040528092919081815260200182805460018160011615610100020316600290048015610e075780601f10610ddc57610100808354040283529160200191610e07565b820191906000526020600020905b815481529060010190602001808311610dea57829003601f168201915b50505050509550848054600181600116156101000203166002900480601f016020809104026020016040519081016040528092919081815260200182805460018160011615610100020316600290048015610ea35780601f10610e7857610100808354040283529160200191610ea3565b820191906000526020600020905b815481529060010190602001808311610e8657829003601f168201915b50505050509450838054600181600116156101000203166002900480601f016020809104026020016040519081016040528092919081815260200182805460018160011615610100020316600290048015610f3f5780601f10610f1457610100808354040283529160200191610f3f565b820191906000526020600020905b815481529060010190602001808311610f2257829003601f168201915b50505050509350828054600181600116156101000203166002900480601f016020809104026020016040519081016040528092919081815260200182805460018160011615610100020316600290048015610fdb5780601f10610fb057610100808354040283529160200191610fdb565b820191906000526020600020905b815481529060010190602001808311610fbe57829003601f168201915b50505050509250975097509750975097509750975050919395979092949650565b60008060008381548110151561100e57fe5b9060005260206000209060090201905060008090505b81600701548110156110b4573373ffffffffffffffffffffffffffffffffffffffff1682600801600083815260200190815260200160002060000160009054906101000a900473ffffffffffffffffffffffffffffffffffffffff1673ffffffffffffffffffffffffffffffffffffffff1614156110a7576001925050506110bb565b8080600101915050611024565b5060009150505b919050565b600080549050831015156110d357600080fd5b600080848154811015156110e357fe5b906000526020600020906009020190503373ffffffffffffffffffffffffffffffffffffffff168160000160009054906101000a900473ffffffffffffffffffffffffffffffffffffffff1673ffffffffffffffffffffffffffffffffffffffff1614158015611159575061115784610ffc565b155b151561116457600080fd5b826000111580156111765750600a8311155b151561118157600080fd5b8281600601600082825401925050819055506080604051908101604052803373ffffffffffffffffffffffffffffffffffffffff1681526020014281526020018481526020018381525081600801600083600701600081548092919060010191905055815260200190815260200160002060008201518160000160006101000a81548173ffffffffffffffffffffffffffffffffffffffff021916908373ffffffffffffffffffffffffffffffffffffffff160217905550602082015181600101556040820151816002015560608201518160030190805190602001906112699291906115df565b509050507f0188d9c8488eedcb649a5a94479208fdd077082f814ffe3df1b1b5c7c121631184338360060154604051808481526020018373ffffffffffffffffffffffffffffffffffffffff1673ffffffffffffffffffffffffffffffffffffffff168152602001828152602001935050505060405180910390a150505050565b6060600160003373ffffffffffffffffffffffffffffffffffffffff1673ffffffffffffffffffffffffffffffffffffffff16815260200190815260200160002060000180548060200260200160405190810160405280929190818152602001828054801561137857602002820191906000526020600020905b815481526020019060010190808311611364575b5050505050905090565b600080600060606000805490508610151561139c57600080fd5b6000868154811015156113ab57fe5b906000526020600020906009020160070154851015156113ca57600080fd5b600080878154811015156113da57fe5b9060005260206000209060090201600801600087815260200190815260200160002090508060000160009054906101000a900473ffffffffffffffffffffffffffffffffffffffff168160010154826002015483600301808054600181600116156101000203166002900480601f0160208091040260200160405190810160405280929190818152602001828054600181600116156101000203166002900480156114c65780601f1061149b576101008083540402835291602001916114c6565b820191906000526020600020905b8154815290600101906020018083116114a957829003601f168201915b5050505050905094509450945094505092959194509250565b6060600160003373ffffffffffffffffffffffffffffffffffffffff1673ffffffffffffffffffffffffffffffffffffffff16815260200190815260200160002060010180548060200260200160405190810160405280929190818152602001828054801561156d57602002820191906000526020600020905b815481526020019060010190808311611559575b5050505050905090565b60008080549050905090565b61010060405190810160405280600073ffffffffffffffffffffffffffffffffffffffff168152602001606081526020016060815260200160608152602001606081526020016000815260200160008152602001600081525090565b828054600181600116156101000203166002900490600052602060002090601f016020900481019282601f1061162057805160ff191683800117855561164e565b8280016001018555821561164e579182015b8281111561164d578251825591602001919060010190611632565b5b50905061165b919061165f565b5090565b61168191905b8082111561167d576000816000905550600101611665565b5090565b9056fea165627a7a723058204d2a198f476b693904e5e6954096cf5845b99f76915ae08322e72f704d019fb90029",
  "source": "pragma solidity >=0.4.22 <0.6.0;\r\n\r\ncontract Information{\r\n    constructor() public{\r\n        \r\n    }\r\n    struct UserNews{\r\n        uint[] publishedNews;\r\n        uint[] commentedNews;\r\n    }\r\n\r\n    struct News{\r\n        address owner; //资讯所有者\r\n        string title;  //资讯标题\r\n        string style; //资讯类型\r\n        string text;  //资讯正文\r\n        string cover; //资讯封面\r\n\r\n        uint date;\r\n        uint score; //资讯评分\r\n        uint clen; //资讯评论数量\r\n        mapping(uint=>Comment) comments;    // 评价列表\r\n\r\n    }\r\n\r\n    // 资讯评价\r\n    struct Comment {\r\n        address viewer;  // 查看者\r\n        uint date;      // 日期\r\n        uint score;     // 评分\r\n        string content; // 评论\r\n    }\r\n\r\n    News[] news;\r\n    mapping(address=>UserNews) userNewsPool;\r\n    //发布消息成功\r\n    event publishSuccess(uint id, string title, string style, string text, string cover, uint date);\r\n    //评价成功\r\n    event evaluateSuccess(uint id, address addr, uint score);\r\n\r\n    //获取已经评价的资讯名单\r\n    function getCommentedNews() public view returns (uint[] memory){\r\n        return userNewsPool[msg.sender].commentedNews;\r\n    }\r\n\r\n    //获取已经发布的资讯名单\r\n    function getPublishedNews() public view returns (uint[] memory){\r\n        return userNewsPool[msg.sender].publishedNews;\r\n    }\r\n\r\n    // 获取资讯数量\r\n    function getNewsLength() public view returns (uint) {\r\n        return news.length;\r\n    }\r\n\r\n    // 获取评价数量\r\n    function getCommentLength(uint id) public view returns (uint) {\r\n        return news[id].clen;\r\n    }\r\n\r\n    // 获取资讯信息\r\n    function getNewsInfo(uint id) public view returns (\r\n        address, string memory, string memory, string memory, string memory, uint, uint) {\r\n        require(id < news.length);\r\n        // 获取资讯\r\n        News storage g = news[id];\r\n        return (g.owner, g.title, g.style, g.text, g.cover,\r\n         g.score, g.date);\r\n    }\r\n\r\n    // 获得评价信息\r\n    function getCommentInfo(uint gid, uint cid) public view returns (\r\n        address, uint, uint, string memory) {\r\n        require(gid < news.length);\r\n        require(cid < news[gid].clen);\r\n        // 获取评价\r\n        Comment storage c = news[gid].comments[cid];\r\n        return (c.viewer, c.date, c.score, c.content);\r\n    }\r\n\r\n    // 是否已经评价 通过遍历实现\r\n    function isEvaluated(uint id) public view returns (bool) {\r\n        News storage g = news[id];\r\n        for(uint i = 0; i < g.clen; i++)\r\n            if(g.comments[i].viewer == msg.sender)\r\n                return true; // 已经评价\r\n        return false; // 尚未评价\r\n    }\r\n\r\n    // 发布资讯\r\n    function publish(\r\n        string memory title, string memory style, string memory text,string memory cover) public {\r\n        uint id = news.length;\r\n        // 创建合约\r\n        News memory g = News(msg.sender, title, style, text, cover,now,0,0); // clen = 0\r\n\r\n        // 记录发布\r\n        news.push(g);\r\n        userNewsPool[msg.sender].publishedNews.push(id);\r\n\r\n        emit publishSuccess(id, title, style, text, cover, g.date);\r\n    }\r\n\r\n    // 评价资讯\r\n    function evaluate(uint id, uint score, string memory content) public {\r\n        require(id < news.length);\r\n        // 读取合约\r\n        News storage g = news[id];\r\n        require(g.owner != msg.sender && !isEvaluated(id)); // 限制条件\r\n        require(0 <= score && score <= 10); // 合法条件\r\n\r\n        // 记录评价\r\n        g.score += score;\r\n        g.comments[g.clen++] = Comment(msg.sender, now, score, content);\r\n\r\n        emit evaluateSuccess(id, msg.sender, g.score);\r\n    }\r\n    function () external {\r\n        revert();\r\n    }\r\n}",
  "sourcePath": "D:/develop/Eshop/Eshop/contracts/Information.sol",
  "compiler": {
    "name": "solc",
    "version": "0.5.0+commit.1d4f565a.Emscripten.clang"
  },
  "schemaVersion": "3.0.2",
  "updatedAt": "2019-03-16T15:05:23.784Z",
  "devdoc": {
    "methods": {}
  },
  "userdoc": {
    "methods": {}
  }
}