{
  "contractName": "Store",
  "abi": [
    {
      "constant": false,
      "inputs": [],
      "name": "buy",
      "outputs": [],
      "payable": true,
      "stateMutability": "payable",
      "type": "function",
      "signature": "0xa6f2ae3a"
    },
    {
      "constant": false,
      "inputs": [
        {
          "name": "tokensToSell",
          "type": "uint256"
        }
      ],
      "name": "sell",
      "outputs": [],
      "payable": false,
      "stateMutability": "nonpayable",
      "type": "function",
      "signature": "0xe4849b32"
    },
    {
      "constant": true,
      "inputs": [],
      "name": "getBalanceInfo",
      "outputs": [
        {
          "name": "",
          "type": "uint256"
        },
        {
          "name": "",
          "type": "uint256"
        },
        {
          "name": "",
          "type": "uint256"
        },
        {
          "name": "",
          "type": "uint256"
        },
        {
          "name": "",
          "type": "uint256"
        },
        {
          "name": "",
          "type": "uint256"
        }
      ],
      "payable": false,
      "stateMutability": "view",
      "type": "function",
      "signature": "0xfc00e628"
    },
    {
      "inputs": [
        {
          "name": "_tokens",
          "type": "uint256"
        },
        {
          "name": "_tokenPrice",
          "type": "uint256"
        }
      ],
      "payable": false,
      "stateMutability": "nonpayable",
      "type": "constructor",
      "signature": "constructor"
    },
    {
      "payable": false,
      "stateMutability": "nonpayable",
      "type": "fallback"
    },
    {
      "anonymous": false,
      "inputs": [
        {
          "indexed": false,
          "name": "id",
          "type": "uint256"
        },
        {
          "indexed": false,
          "name": "name",
          "type": "string"
        },
        {
          "indexed": false,
          "name": "style",
          "type": "string"
        },
        {
          "indexed": false,
          "name": "intro",
          "type": "string"
        },
        {
          "indexed": false,
          "name": "rules",
          "type": "string"
        },
        {
          "indexed": false,
          "name": "price",
          "type": "uint256"
        },
        {
          "indexed": false,
          "name": "date",
          "type": "uint256"
        },
        {
          "indexed": false,
          "name": "cover",
          "type": "string"
        },
        {
          "indexed": false,
          "name": "file",
          "type": "string"
        }
      ],
      "name": "publishSuccess",
      "type": "event",
      "signature": "0x4e145430bc905a4b44636249c8930622c5295af65fc55826db406a9f8200c4b4"
    },
    {
      "anonymous": false,
      "inputs": [
        {
          "indexed": false,
          "name": "id",
          "type": "uint256"
        },
        {
          "indexed": false,
          "name": "addr",
          "type": "address"
        },
        {
          "indexed": false,
          "name": "price",
          "type": "uint256"
        }
      ],
      "name": "purchaseSuccess",
      "type": "event",
      "signature": "0x80dd1adb7e1bbfbc8f1d333f3ac51f8cfef8e143b8ef4211dad8fe3aad60ff13"
    },
    {
      "anonymous": false,
      "inputs": [
        {
          "indexed": false,
          "name": "id",
          "type": "uint256"
        },
        {
          "indexed": false,
          "name": "addr",
          "type": "address"
        },
        {
          "indexed": false,
          "name": "score",
          "type": "uint256"
        }
      ],
      "name": "evaluateSuccess",
      "type": "event",
      "signature": "0x0188d9c8488eedcb649a5a94479208fdd077082f814ffe3df1b1b5c7c1216311"
    },
    {
      "anonymous": false,
      "inputs": [
        {
          "indexed": false,
          "name": "addr",
          "type": "address"
        },
        {
          "indexed": false,
          "name": "num",
          "type": "uint256"
        }
      ],
      "name": "buySuccess",
      "type": "event",
      "signature": "0x5c0f7077070d7d861d4f79c1a08533ba6cd4b1a7343dbf8eba242f98dee6159e"
    },
    {
      "anonymous": false,
      "inputs": [
        {
          "indexed": false,
          "name": "addr",
          "type": "address"
        },
        {
          "indexed": false,
          "name": "num",
          "type": "uint256"
        }
      ],
      "name": "sellSuccess",
      "type": "event",
      "signature": "0xcb4f6862681850b9e1b25eec722802f96256bc8915cea26be4821167ce1bdbad"
    },
    {
      "constant": true,
      "inputs": [],
      "name": "getPurchasedProducts",
      "outputs": [
        {
          "name": "",
          "type": "uint256[]"
        }
      ],
      "payable": false,
      "stateMutability": "view",
      "type": "function",
      "signature": "0x0198632a"
    },
    {
      "constant": true,
      "inputs": [],
      "name": "getPublishedProducts",
      "outputs": [
        {
          "name": "",
          "type": "uint256[]"
        }
      ],
      "payable": false,
      "stateMutability": "view",
      "type": "function",
      "signature": "0x8ab2c877"
    },
    {
      "constant": true,
      "inputs": [],
      "name": "getProductLength",
      "outputs": [
        {
          "name": "",
          "type": "uint256"
        }
      ],
      "payable": false,
      "stateMutability": "view",
      "type": "function",
      "signature": "0xf2d61819"
    },
    {
      "constant": true,
      "inputs": [
        {
          "name": "id",
          "type": "uint256"
        }
      ],
      "name": "getCommentLength",
      "outputs": [
        {
          "name": "",
          "type": "uint256"
        }
      ],
      "payable": false,
      "stateMutability": "view",
      "type": "function",
      "signature": "0x1f5a5cd5"
    },
    {
      "constant": true,
      "inputs": [
        {
          "name": "id",
          "type": "uint256"
        }
      ],
      "name": "getProductInfo",
      "outputs": [
        {
          "name": "",
          "type": "address"
        },
        {
          "name": "",
          "type": "string"
        },
        {
          "name": "",
          "type": "string"
        },
        {
          "name": "",
          "type": "string"
        },
        {
          "name": "",
          "type": "string"
        },
        {
          "name": "",
          "type": "uint256"
        },
        {
          "name": "",
          "type": "uint256"
        },
        {
          "name": "",
          "type": "uint256"
        },
        {
          "name": "",
          "type": "uint256"
        },
        {
          "name": "",
          "type": "string"
        }
      ],
      "payable": false,
      "stateMutability": "view",
      "type": "function",
      "signature": "0x79a85e6c"
    },
    {
      "constant": true,
      "inputs": [
        {
          "name": "id",
          "type": "uint256"
        }
      ],
      "name": "getProductFile",
      "outputs": [
        {
          "name": "",
          "type": "string"
        }
      ],
      "payable": false,
      "stateMutability": "view",
      "type": "function",
      "signature": "0x5ef1a476"
    },
    {
      "constant": true,
      "inputs": [
        {
          "name": "gid",
          "type": "uint256"
        },
        {
          "name": "cid",
          "type": "uint256"
        }
      ],
      "name": "getCommentInfo",
      "outputs": [
        {
          "name": "",
          "type": "address"
        },
        {
          "name": "",
          "type": "uint256"
        },
        {
          "name": "",
          "type": "uint256"
        },
        {
          "name": "",
          "type": "string"
        }
      ],
      "payable": false,
      "stateMutability": "view",
      "type": "function",
      "signature": "0x9fae3010"
    },
    {
      "constant": true,
      "inputs": [
        {
          "name": "id",
          "type": "uint256"
        }
      ],
      "name": "isPurchased",
      "outputs": [
        {
          "name": "",
          "type": "bool"
        }
      ],
      "payable": false,
      "stateMutability": "view",
      "type": "function",
      "signature": "0x2c9f4f62"
    },
    {
      "constant": true,
      "inputs": [
        {
          "name": "id",
          "type": "uint256"
        }
      ],
      "name": "isEvaluated",
      "outputs": [
        {
          "name": "",
          "type": "bool"
        }
      ],
      "payable": false,
      "stateMutability": "view",
      "type": "function",
      "signature": "0x550ca61d"
    },
    {
      "constant": false,
      "inputs": [
        {
          "name": "name",
          "type": "string"
        },
        {
          "name": "style",
          "type": "string"
        },
        {
          "name": "intro",
          "type": "string"
        },
        {
          "name": "rules",
          "type": "string"
        },
        {
          "name": "price",
          "type": "uint256"
        },
        {
          "name": "cover",
          "type": "string"
        },
        {
          "name": "file",
          "type": "string"
        }
      ],
      "name": "publish",
      "outputs": [],
      "payable": false,
      "stateMutability": "nonpayable",
      "type": "function",
      "signature": "0xc6acc3dc"
    },
    {
      "constant": false,
      "inputs": [
        {
          "name": "id",
          "type": "uint256"
        }
      ],
      "name": "purchase",
      "outputs": [],
      "payable": false,
      "stateMutability": "nonpayable",
      "type": "function",
      "signature": "0xefef39a1"
    },
    {
      "constant": false,
      "inputs": [
        {
          "name": "id",
          "type": "uint256"
        },
        {
          "name": "score",
          "type": "uint256"
        },
        {
          "name": "content",
          "type": "string"
        }
      ],
      "name": "evaluate",
      "outputs": [],
      "payable": false,
      "stateMutability": "nonpayable",
      "type": "function",
      "signature": "0x7157eb66"
    }
  ],
  "bytecode": "0x608060405234801561001057600080fd5b506040516040806124b68339810180604052604081101561003057600080fd5b81019080805190602001909291908051906020019092919050505081600081905550806001819055506000546002819055505050612443806100736000396000f3fe6080604052600436106100db576000357c0100000000000000000000000000000000000000000000000000000000900463ffffffff1680630198632a146100ed5780631f5a5cd5146101595780632c9f4f62146101a8578063550ca61d146101fb5780635ef1a4761461024e5780637157eb661461030257806379a85e6c146103de5780638ab2c877146106915780639fae3010146106fd578063a6f2ae3a146107fc578063c6acc3dc14610806578063e4849b3214610bcb578063efef39a114610c06578063f2d6181914610c41578063fc00e62814610c6c575b3480156100e757600080fd5b50600080fd5b3480156100f957600080fd5b50610102610cba565b6040518080602001828103825283818151815260200191508051906020019060200280838360005b8381101561014557808201518184015260208101905061012a565b505050509050019250505060405180910390f35b34801561016557600080fd5b506101926004803603602081101561017c57600080fd5b8101908080359060200190929190505050610d52565b6040518082815260200191505060405180910390f35b3480156101b457600080fd5b506101e1600480360360208110156101cb57600080fd5b8101908080359060200190929190505050610d7c565b604051808215151515815260200191505060405180910390f35b34801561020757600080fd5b506102346004803603602081101561021e57600080fd5b8101908080359060200190929190505050610e1c565b604051808215151515815260200191505060405180910390f35b34801561025a57600080fd5b506102876004803603602081101561027157600080fd5b8101908080359060200190929190505050610ee0565b6040518080602001828103825283818151815260200191508051906020019080838360005b838110156102c75780820151818401526020810190506102ac565b50505050905090810190601f1680156102f45780820380516001836020036101000a031916815260200191505b509250505060405180910390f35b34801561030e57600080fd5b506103dc6004803603606081101561032557600080fd5b8101908080359060200190929190803590602001909291908035906020019064010000000081111561035657600080fd5b82018360208201111561036857600080fd5b8035906020019184600183028401116401000000008311171561038a57600080fd5b91908080601f016020809104026020016040519081016040528093929190818152602001838380828437600081840152601f19601f820116905080830192505050505050509192919290505050611029565b005b3480156103ea57600080fd5b506104176004803603602081101561040157600080fd5b8101908080359060200190929190505050611265565b604051808b73ffffffffffffffffffffffffffffffffffffffff1673ffffffffffffffffffffffffffffffffffffffff168152602001806020018060200180602001806020018a81526020018981526020018881526020018781526020018060200186810386528f818151815260200191508051906020019080838360005b838110156104b1578082015181840152602081019050610496565b50505050905090810190601f1680156104de5780820380516001836020036101000a031916815260200191505b5086810385528e818151815260200191508051906020019080838360005b838110156105175780820151818401526020810190506104fc565b50505050905090810190601f1680156105445780820380516001836020036101000a031916815260200191505b5086810384528d818151815260200191508051906020019080838360005b8381101561057d578082015181840152602081019050610562565b50505050905090810190601f1680156105aa5780820380516001836020036101000a031916815260200191505b5086810383528c818151815260200191508051906020019080838360005b838110156105e35780820151818401526020810190506105c8565b50505050905090810190601f1680156106105780820380516001836020036101000a031916815260200191505b50868103825287818151815260200191508051906020019080838360005b8381101561064957808201518184015260208101905061062e565b50505050905090810190601f1680156106765780820380516001836020036101000a031916815260200191505b509f5050505050505050505050505050505060405180910390f35b34801561069d57600080fd5b506106a6611624565b6040518080602001828103825283818151815260200191508051906020019060200280838360005b838110156106e95780820151818401526020810190506106ce565b505050509050019250505060405180910390f35b34801561070957600080fd5b506107406004803603604081101561072057600080fd5b8101908080359060200190929190803590602001909291905050506116bc565b604051808573ffffffffffffffffffffffffffffffffffffffff1673ffffffffffffffffffffffffffffffffffffffff16815260200184815260200183815260200180602001828103825283818151815260200191508051906020019080838360005b838110156107be5780820151818401526020810190506107a3565b50505050905090810190601f1680156107eb5780820380516001836020036101000a031916815260200191505b509550505050505060405180910390f35b61080461181a565b005b34801561081257600080fd5b50610bc9600480360360e081101561082957600080fd5b810190808035906020019064010000000081111561084657600080fd5b82018360208201111561085857600080fd5b8035906020019184600183028401116401000000008311171561087a57600080fd5b91908080601f016020809104026020016040519081016040528093929190818152602001838380828437600081840152601f19601f820116905080830192505050505050509192919290803590602001906401000000008111156108dd57600080fd5b8201836020820111156108ef57600080fd5b8035906020019184600183028401116401000000008311171561091157600080fd5b91908080601f016020809104026020016040519081016040528093929190818152602001838380828437600081840152601f19601f8201169050808301925050505050505091929192908035906020019064010000000081111561097457600080fd5b82018360208201111561098657600080fd5b803590602001918460018302840111640100000000831117156109a857600080fd5b91908080601f016020809104026020016040519081016040528093929190818152602001838380828437600081840152601f19601f82011690508083019250505050505050919291929080359060200190640100000000811115610a0b57600080fd5b820183602082011115610a1d57600080fd5b80359060200191846001830284011164010000000083111715610a3f57600080fd5b91908080601f016020809104026020016040519081016040528093929190818152602001838380828437600081840152601f19601f8201169050808301925050505050505091929192908035906020019092919080359060200190640100000000811115610aac57600080fd5b820183602082011115610abe57600080fd5b80359060200191846001830284011164010000000083111715610ae057600080fd5b91908080601f016020809104026020016040519081016040528093929190818152602001838380828437600081840152601f19601f82011690508083019250505050505050919291929080359060200190640100000000811115610b4357600080fd5b820183602082011115610b5557600080fd5b80359060200191846001830284011164010000000083111715610b7757600080fd5b91908080601f016020809104026020016040519081016040528093929190818152602001838380828437600081840152601f19601f820116905080830192505050505050509192919290505050611908565b005b348015610bd757600080fd5b50610c0460048036036020811015610bee57600080fd5b8101908080359060200190929190505050611e35565b005b348015610c1257600080fd5b50610c3f60048036036020811015610c2957600080fd5b8101908080359060200190929190505050611f9f565b005b348015610c4d57600080fd5b50610c56612257565b6040518082815260200191505060405180910390f35b348015610c7857600080fd5b50610c81612264565b60405180878152602001868152602001858152602001848152602001838152602001828152602001965050505050505060405180910390f35b6060600560003373ffffffffffffffffffffffffffffffffffffffff1673ffffffffffffffffffffffffffffffffffffffff168152602001908152602001600020600001805480602002602001604051908101604052809291908181526020018280548015610d4857602002820191906000526020600020905b815481526020019060010190808311610d34575b5050505050905090565b6000600482815481101515610d6357fe5b90600052602060002090600d0201600b01549050919050565b600080600560003373ffffffffffffffffffffffffffffffffffffffff1673ffffffffffffffffffffffffffffffffffffffff168152602001908152602001600020905060008090505b8160000180549050811015610e1057838260000182815481101515610de757fe5b90600052602060002001541415610e0357600192505050610e17565b8080600101915050610dc6565b5060009150505b919050565b600080600483815481101515610e2e57fe5b90600052602060002090600d0201905060008090505b81600b0154811015610ed4573373ffffffffffffffffffffffffffffffffffffffff1682600c01600083815260200190815260200160002060000160009054906101000a900473ffffffffffffffffffffffffffffffffffffffff1673ffffffffffffffffffffffffffffffffffffffff161415610ec757600192505050610edb565b8080600101915050610e44565b5060009150505b919050565b606060048054905082101515610ef557600080fd5b6000600483815481101515610f0657fe5b90600052602060002090600d020190503373ffffffffffffffffffffffffffffffffffffffff168160000160009054906101000a900473ffffffffffffffffffffffffffffffffffffffff1673ffffffffffffffffffffffffffffffffffffffff161480610f795750610f7883610d7c565b5b1515610f8457600080fd5b80600a018054600181600116156101000203166002900480601f01602080910402602001604051908101604052809291908181526020018280546001816001161561010002031660029004801561101c5780601f10610ff15761010080835404028352916020019161101c565b820191906000526020600020905b815481529060010190602001808311610fff57829003601f168201915b5050505050915050919050565b6004805490508310151561103c57600080fd5b600060048481548110151561104d57fe5b90600052602060002090600d020190503373ffffffffffffffffffffffffffffffffffffffff168160000160009054906101000a900473ffffffffffffffffffffffffffffffffffffffff1673ffffffffffffffffffffffffffffffffffffffff16141580156110c257506110c184610d7c565b5b80156110d457506110d284610e1c565b155b15156110df57600080fd5b826000111580156110f15750600a8311155b15156110fc57600080fd5b8281600701600082825401925050819055506080604051908101604052803373ffffffffffffffffffffffffffffffffffffffff1681526020014281526020018481526020018381525081600c01600083600b01600081548092919060010191905055815260200190815260200160002060008201518160000160006101000a81548173ffffffffffffffffffffffffffffffffffffffff021916908373ffffffffffffffffffffffffffffffffffffffff160217905550602082015181600101556040820151816002015560608201518160030190805190602001906111e49291906122fa565b509050507f0188d9c8488eedcb649a5a94479208fdd077082f814ffe3df1b1b5c7c121631184338360070154604051808481526020018373ffffffffffffffffffffffffffffffffffffffff1673ffffffffffffffffffffffffffffffffffffffff168152602001828152602001935050505060405180910390a150505050565b600060608060608060008060008060606004805490508b10151561128857600080fd5b600060048c81548110151561129957fe5b90600052602060002090600d020190508060000160009054906101000a900473ffffffffffffffffffffffffffffffffffffffff1681600101826002018360030184600401856005015486600601548760070154886008015489600901888054600181600116156101000203166002900480601f01602080910402602001604051908101604052809291908181526020018280546001816001161561010002031660029004801561138b5780601f106113605761010080835404028352916020019161138b565b820191906000526020600020905b81548152906001019060200180831161136e57829003601f168201915b50505050509850878054600181600116156101000203166002900480601f0160208091040260200160405190810160405280929190818152602001828054600181600116156101000203166002900480156114275780601f106113fc57610100808354040283529160200191611427565b820191906000526020600020905b81548152906001019060200180831161140a57829003601f168201915b50505050509750868054600181600116156101000203166002900480601f0160208091040260200160405190810160405280929190818152602001828054600181600116156101000203166002900480156114c35780601f10611498576101008083540402835291602001916114c3565b820191906000526020600020905b8154815290600101906020018083116114a657829003601f168201915b50505050509650858054600181600116156101000203166002900480601f01602080910402602001604051908101604052809291908181526020018280546001816001161561010002031660029004801561155f5780601f106115345761010080835404028352916020019161155f565b820191906000526020600020905b81548152906001019060200180831161154257829003601f168201915b50505050509550808054600181600116156101000203166002900480601f0160208091040260200160405190810160405280929190818152602001828054600181600116156101000203166002900480156115fb5780601f106115d0576101008083540402835291602001916115fb565b820191906000526020600020905b8154815290600101906020018083116115de57829003601f168201915b505050505090509a509a509a509a509a509a509a509a509a509a50509193959799509193959799565b6060600560003373ffffffffffffffffffffffffffffffffffffffff1673ffffffffffffffffffffffffffffffffffffffff1681526020019081526020016000206001018054806020026020016040519081016040528092919081815260200182805480156116b257602002820191906000526020600020905b81548152602001906001019080831161169e575b5050505050905090565b60008060006060600480549050861015156116d657600080fd5b6004868154811015156116e557fe5b90600052602060002090600d0201600b01548510151561170457600080fd5b600060048781548110151561171557fe5b90600052602060002090600d0201600c01600087815260200190815260200160002090508060000160009054906101000a900473ffffffffffffffffffffffffffffffffffffffff168160010154826002015483600301808054600181600116156101000203166002900480601f0160208091040260200160405190810160405280929190818152602001828054600181600116156101000203166002900480156118015780601f106117d657610100808354040283529160200191611801565b820191906000526020600020905b8154815290600101906020018083116117e457829003601f168201915b5050505050905094509450945094505092959194509250565b60006001543481151561182957fe5b049050600254811115151561183d57600080fd5b80600360003373ffffffffffffffffffffffffffffffffffffffff1673ffffffffffffffffffffffffffffffffffffffff16815260200190815260200160002060008282540192505081905550806002600082825403925050819055507f5c0f7077070d7d861d4f79c1a08533ba6cd4b1a7343dbf8eba242f98dee6159e3382604051808373ffffffffffffffffffffffffffffffffffffffff1673ffffffffffffffffffffffffffffffffffffffff1681526020018281526020019250505060405180910390a150565b6000600480549050905061191a61237a565b610180604051908101604052803373ffffffffffffffffffffffffffffffffffffffff1681526020018a81526020018981526020018881526020018781526020018681526020016000815260200160008152602001428152602001858152602001848152602001600081525090506004819080600181540180825580915050906001820390600052602060002090600d02016000909192909190915060008201518160000160006101000a81548173ffffffffffffffffffffffffffffffffffffffff021916908373ffffffffffffffffffffffffffffffffffffffff1602179055506020820151816001019080519060200190611a199291906122fa565b506040820151816002019080519060200190611a369291906122fa565b506060820151816003019080519060200190611a539291906122fa565b506080820151816004019080519060200190611a709291906122fa565b5060a0820151816005015560c0820151816006015560e082015181600701556101008201518160080155610120820151816009019080519060200190611ab79291906122fa565b5061014082015181600a019080519060200190611ad59291906122fa565b5061016082015181600b0155505050600560003373ffffffffffffffffffffffffffffffffffffffff1673ffffffffffffffffffffffffffffffffffffffff1681526020019081526020016000206001018290806001815401808255809150509060018203906000526020600020016000909192909190915055507f4e145430bc905a4b44636249c8930622c5295af65fc55826db406a9f8200c4b4828a8a8a8a8a8761010001518b8b604051808a815260200180602001806020018060200180602001898152602001888152602001806020018060200187810387528f818151815260200191508051906020019080838360005b83811015611be5578082015181840152602081019050611bca565b50505050905090810190601f168015611c125780820380516001836020036101000a031916815260200191505b5087810386528e818151815260200191508051906020019080838360005b83811015611c4b578082015181840152602081019050611c30565b50505050905090810190601f168015611c785780820380516001836020036101000a031916815260200191505b5087810385528d818151815260200191508051906020019080838360005b83811015611cb1578082015181840152602081019050611c96565b50505050905090810190601f168015611cde5780820380516001836020036101000a031916815260200191505b5087810384528c818151815260200191508051906020019080838360005b83811015611d17578082015181840152602081019050611cfc565b50505050905090810190601f168015611d445780820380516001836020036101000a031916815260200191505b50878103835289818151815260200191508051906020019080838360005b83811015611d7d578082015181840152602081019050611d62565b50505050905090810190601f168015611daa5780820380516001836020036101000a031916815260200191505b50878103825288818151815260200191508051906020019080838360005b83811015611de3578082015181840152602081019050611dc8565b50505050905090810190601f168015611e105780820380516001836020036101000a031916815260200191505b509f5050505050505050505050505050505060405180910390a1505050505050505050565b600360003373ffffffffffffffffffffffffffffffffffffffff1673ffffffffffffffffffffffffffffffffffffffff168152602001908152602001600020548111151515611e8357600080fd5b60006001548202905081600360003373ffffffffffffffffffffffffffffffffffffffff1673ffffffffffffffffffffffffffffffffffffffff16815260200190815260200160002060008282540392505081905550816002600082825401925050819055503373ffffffffffffffffffffffffffffffffffffffff166108fc829081150290604051600060405180830381858888f19350505050158015611f2f573d6000803e3d6000fd5b507fcb4f6862681850b9e1b25eec722802f96256bc8915cea26be4821167ce1bdbad3383604051808373ffffffffffffffffffffffffffffffffffffffff1673ffffffffffffffffffffffffffffffffffffffff1681526020018281526020019250505060405180910390a15050565b60048054905081101515611fb257600080fd5b6000600482815481101515611fc357fe5b90600052602060002090600d020190503373ffffffffffffffffffffffffffffffffffffffff168160000160009054906101000a900473ffffffffffffffffffffffffffffffffffffffff1673ffffffffffffffffffffffffffffffffffffffff1614158015612039575061203782610d7c565b155b151561204457600080fd5b8060050154600360003373ffffffffffffffffffffffffffffffffffffffff1673ffffffffffffffffffffffffffffffffffffffff168152602001908152602001600020541015151561209657600080fd5b8060050154600360003373ffffffffffffffffffffffffffffffffffffffff1673ffffffffffffffffffffffffffffffffffffffff168152602001908152602001600020600082825403925050819055508060050154600360008360000160009054906101000a900473ffffffffffffffffffffffffffffffffffffffff1673ffffffffffffffffffffffffffffffffffffffff1673ffffffffffffffffffffffffffffffffffffffff168152602001908152602001600020600082825401925050819055508060060160008154809291906001019190505550600560003373ffffffffffffffffffffffffffffffffffffffff1673ffffffffffffffffffffffffffffffffffffffff1681526020019081526020016000206000018290806001815401808255809150509060018203906000526020600020016000909192909190915055507f80dd1adb7e1bbfbc8f1d333f3ac51f8cfef8e143b8ef4211dad8fe3aad60ff1382338360050154604051808481526020018373ffffffffffffffffffffffffffffffffffffffff1673ffffffffffffffffffffffffffffffffffffffff168152602001828152602001935050505060405180910390a15050565b6000600480549050905090565b6000806000806000806000546001546002543073ffffffffffffffffffffffffffffffffffffffff1631600360003373ffffffffffffffffffffffffffffffffffffffff1673ffffffffffffffffffffffffffffffffffffffff168152602001908152602001600020543373ffffffffffffffffffffffffffffffffffffffff1631955095509550955095509550909192939495565b828054600181600116156101000203166002900490600052602060002090601f016020900481019282601f1061233b57805160ff1916838001178555612369565b82800160010185558215612369579182015b8281111561236857825182559160200191906001019061234d565b5b50905061237691906123f2565b5090565b61018060405190810160405280600073ffffffffffffffffffffffffffffffffffffffff16815260200160608152602001606081526020016060815260200160608152602001600081526020016000815260200160008152602001600081526020016060815260200160608152602001600081525090565b61241491905b808211156124105760008160009055506001016123f8565b5090565b9056fea165627a7a72305820205b36bffe0e13e1899d73f6988ebd20e87aa4ade255ff0c7c584cbbf73728d70029",
  "source": "pragma solidity >=0.4.22 <0.6.0;\r\n// \r\ncontract Token {\r\n    uint tokenTotal;    // \r\n    uint tokenPrice;    // \r\n    uint balanceTokens; // \r\n\r\n    // \r\n    mapping(address=>uint) balances;\r\n\r\n    event buySuccess(address addr, uint num);\r\n    event sellSuccess(address addr, uint num);\r\n\r\n    //  [     ]\r\n    function getBalanceInfo() public view returns (\r\n        uint, uint, uint, uint, uint, uint) {\r\n        return (tokenTotal, tokenPrice,\r\n        balanceTokens, address(this).balance,\r\n        balances[msg.sender], msg.sender.balance);\r\n    }\r\n\r\n    // \r\n    function buy() public payable {\r\n        uint tokensToBuy = msg.value / tokenPrice;\r\n        require(tokensToBuy <= balanceTokens); // \r\n        // \r\n        balances[msg.sender] += tokensToBuy;\r\n        balanceTokens -= tokensToBuy;\r\n        emit buySuccess(msg.sender, tokensToBuy);\r\n    }\r\n\r\n    // \r\n    function sell(uint tokensToSell) public {\r\n        require(tokensToSell <= balances[msg.sender]); // \r\n        // \r\n        uint total = tokensToSell * tokenPrice;\r\n        balances[msg.sender] -= tokensToSell;\r\n        balanceTokens += tokensToSell;\r\n        msg.sender.transfer(total);\r\n        emit sellSuccess(msg.sender, tokensToSell);\r\n    }\r\n}\r\n// \r\ncontract Store is Token {\r\n    constructor(uint _tokens, uint _tokenPrice) public {\r\n        tokenTotal = _tokens;       // 100000\r\n        tokenPrice = _tokenPrice;   // 100000000000000000\r\n        balanceTokens = tokenTotal; // 100000\r\n    }\r\n\r\n    // \r\n    struct User {\r\n        uint[] purchasedProducts;  // \r\n        uint[] publishedProducts;  // \r\n    }\r\n\r\n    // \r\n    struct Product {\r\n        address owner;  // \r\n        string name;    // \r\n        string style;   // \r\n        string intro;   // \r\n        string rules;   // \r\n        uint price;     // \r\n        uint sales;     // \r\n        uint score;     // \r\n        uint date;      // \r\n        string cover;   //  (ipfs)\r\n        string file;    //  (ipfs)\r\n\r\n        uint clen;                          // \r\n        mapping(uint=>Comment) comments;    // \r\n    }\r\n\r\n    // \r\n    struct Comment {\r\n        address buyer;  // \r\n        uint date;      // \r\n        uint score;     // \r\n        string content; // \r\n    }\r\n\r\n    Product[] products;\r\n    mapping(address=>User) userPool;\r\n\r\n    event publishSuccess(\r\n        uint id, string name, string style, string intro, string rules,\r\n        uint price, uint date, string cover, string file);\r\n    event purchaseSuccess(uint id, address addr, uint price);\r\n    event evaluateSuccess(uint id, address addr, uint score);\r\n\r\n    // \r\n    function getPurchasedProducts() public view returns (uint[] memory) {\r\n        return userPool[msg.sender].purchasedProducts;\r\n    }\r\n\r\n    // \r\n    function getPublishedProducts() public view returns (uint[] memory) {\r\n        return userPool[msg.sender].publishedProducts;\r\n    }\r\n\r\n    // \r\n    function getProductLength() public view returns (uint) {\r\n        return products.length;\r\n    }\r\n\r\n    // \r\n    function getCommentLength(uint id) public view returns (uint) {\r\n        return products[id].clen;\r\n    }\r\n\r\n    // \r\n    function getProductInfo(uint id) public view returns (\r\n        address, string memory, string memory, string memory, string memory, uint, uint, uint, uint, string memory) {\r\n        require(id < products.length);\r\n        // \r\n        Product storage g = products[id];\r\n        return (g.owner, g.name, g.style, g.intro, g.rules,\r\n        g.price, g.sales, g.score, g.date, g.cover);\r\n    }\r\n\r\n    // \r\n    function getProductFile(uint id) public view returns (string memory) {\r\n        require(id < products.length);\r\n        // \r\n        Product storage g = products[id];\r\n        require(g.owner == msg.sender || isPurchased(id)); // \r\n        return (g.file);\r\n    }\r\n\r\n    // \r\n    function getCommentInfo(uint gid, uint cid) public view returns (\r\n        address, uint, uint, string memory) {\r\n        require(gid < products.length);\r\n        require(cid < products[gid].clen);\r\n        // \r\n        Comment storage c = products[gid].comments[cid];\r\n        return (c.buyer, c.date, c.score, c.content);\r\n    }\r\n\r\n    //  \r\n    function isPurchased(uint id) public view returns (bool) {\r\n        User storage u = userPool[msg.sender];\r\n        for(uint i = 0; i < u.purchasedProducts.length; i++)\r\n            if(u.purchasedProducts[i] == id)\r\n                return true; // \r\n        return false; // \r\n    }\r\n\r\n    //  \r\n    function isEvaluated(uint id) public view returns (bool) {\r\n        Product storage g = products[id];\r\n        for(uint i = 0; i < g.clen; i++)\r\n            if(g.comments[i].buyer == msg.sender)\r\n                return true; // \r\n        return false; // \r\n    }\r\n\r\n    // \r\n    function publish(\r\n        string memory name, string memory style, string memory intro, string memory rules,\r\n        uint price, string memory cover, string memory file) public {\r\n        uint id = products.length;\r\n        // \r\n        Product memory g = Product(msg.sender, name, style, intro, rules,\r\n            price, 0, 0, now, cover, file, 0); // clen = 0\r\n\r\n        // \r\n        products.push(g);\r\n        userPool[msg.sender].publishedProducts.push(id);\r\n\r\n        emit publishSuccess(id, name, style, intro, rules, price, g.date, cover, file);\r\n    }\r\n\r\n    // \r\n    function purchase(uint id) public {\r\n        require(id < products.length);\r\n        // \r\n        Product storage g = products[id];\r\n        require(g.owner != msg.sender && !isPurchased(id)); // \r\n        require(balances[msg.sender] >= g.price); // \r\n\r\n        // \r\n        balances[msg.sender] -= g.price;\r\n        balances[g.owner] += g.price;\r\n        g.sales++;\r\n        userPool[msg.sender].purchasedProducts.push(id);\r\n\r\n        emit purchaseSuccess(id, msg.sender, g.price);\r\n    }\r\n\r\n    // \r\n    function evaluate(uint id, uint score, string memory content) public {\r\n        require(id < products.length);\r\n        // \r\n        Product storage g = products[id];\r\n        require(g.owner != msg.sender && isPurchased(id) && !isEvaluated(id)); // \r\n        require(0 <= score && score <= 10); // \r\n\r\n        // \r\n        g.score += score;\r\n        g.comments[g.clen++] = Comment(msg.sender, now, score, content);\r\n\r\n        emit evaluateSuccess(id, msg.sender, g.score);\r\n    }\r\n    function () external {\r\n        revert();\r\n    }\r\n}",
  "sourcePath": "D:/develop/Eshop/Eshop/contracts/Store.sol",
  "compiler": {
    "name": "solc",
    "version": "0.5.0+commit.1d4f565a.Emscripten.clang"
  },
  "schemaVersion": "3.0.2",
  "updatedAt": "2019-05-05T14:25:57.312Z",
  "devdoc": {
    "methods": {}
  },
  "userdoc": {
    "methods": {}
  }
}