{
  "contractName": "Token",
  "abi": [
    {
      "anonymous": false,
      "inputs": [
        {
          "indexed": false,
          "name": "addr",
          "type": "address"
        },
        {
          "indexed": false,
          "name": "num",
          "type": "uint256"
        }
      ],
      "name": "buySuccess",
      "type": "event"
    },
    {
      "anonymous": false,
      "inputs": [
        {
          "indexed": false,
          "name": "addr",
          "type": "address"
        },
        {
          "indexed": false,
          "name": "num",
          "type": "uint256"
        }
      ],
      "name": "sellSuccess",
      "type": "event"
    },
    {
      "constant": true,
      "inputs": [],
      "name": "getBalanceInfo",
      "outputs": [
        {
          "name": "",
          "type": "uint256"
        },
        {
          "name": "",
          "type": "uint256"
        },
        {
          "name": "",
          "type": "uint256"
        },
        {
          "name": "",
          "type": "uint256"
        },
        {
          "name": "",
          "type": "uint256"
        },
        {
          "name": "",
          "type": "uint256"
        }
      ],
      "payable": false,
      "stateMutability": "view",
      "type": "function"
    },
    {
      "constant": false,
      "inputs": [],
      "name": "buy",
      "outputs": [],
      "payable": true,
      "stateMutability": "payable",
      "type": "function"
    },
    {
      "constant": false,
      "inputs": [
        {
          "name": "tokensToSell",
          "type": "uint256"
        }
      ],
      "name": "sell",
      "outputs": [],
      "payable": false,
      "stateMutability": "nonpayable",
      "type": "function"
    }
  ],
  "bytecode": "0x608060405234801561001057600080fd5b50610409806100206000396000f3fe608060405260043610610057576000357c0100000000000000000000000000000000000000000000000000000000900463ffffffff168063a6f2ae3a1461005c578063e4849b3214610066578063fc00e628146100a1575b600080fd5b6100646100ef565b005b34801561007257600080fd5b5061009f6004803603602081101561008957600080fd5b81019080803590602001909291905050506101dd565b005b3480156100ad57600080fd5b506100b6610347565b60405180878152602001868152602001858152602001848152602001838152602001828152602001965050505050505060405180910390f35b6000600154348115156100fe57fe5b049050600254811115151561011257600080fd5b80600360003373ffffffffffffffffffffffffffffffffffffffff1673ffffffffffffffffffffffffffffffffffffffff16815260200190815260200160002060008282540192505081905550806002600082825403925050819055507f5c0f7077070d7d861d4f79c1a08533ba6cd4b1a7343dbf8eba242f98dee6159e3382604051808373ffffffffffffffffffffffffffffffffffffffff1673ffffffffffffffffffffffffffffffffffffffff1681526020018281526020019250505060405180910390a150565b600360003373ffffffffffffffffffffffffffffffffffffffff1673ffffffffffffffffffffffffffffffffffffffff16815260200190815260200160002054811115151561022b57600080fd5b60006001548202905081600360003373ffffffffffffffffffffffffffffffffffffffff1673ffffffffffffffffffffffffffffffffffffffff16815260200190815260200160002060008282540392505081905550816002600082825401925050819055503373ffffffffffffffffffffffffffffffffffffffff166108fc829081150290604051600060405180830381858888f193505050501580156102d7573d6000803e3d6000fd5b507fcb4f6862681850b9e1b25eec722802f96256bc8915cea26be4821167ce1bdbad3383604051808373ffffffffffffffffffffffffffffffffffffffff1673ffffffffffffffffffffffffffffffffffffffff1681526020018281526020019250505060405180910390a15050565b6000806000806000806000546001546002543073ffffffffffffffffffffffffffffffffffffffff1631600360003373ffffffffffffffffffffffffffffffffffffffff1673ffffffffffffffffffffffffffffffffffffffff168152602001908152602001600020543373ffffffffffffffffffffffffffffffffffffffff163195509550955095509550955090919293949556fea165627a7a723058204785d307ba8dd8837a5e1df0e5d499f242394bd91c270e067c43fb7e79900d3f0029",
  "source": "pragma solidity >=0.4.22 <0.6.0;\r\n// 代币系统\r\ncontract Token {\r\n    uint tokenTotal;    // 代币总和\r\n    uint tokenPrice;    // 代币价格\r\n    uint balanceTokens; // 合约余额\r\n\r\n    // 所有用户余额记录\r\n    mapping(address=>uint) balances;\r\n\r\n    event buySuccess(address addr, uint num);\r\n    event sellSuccess(address addr, uint num);\r\n\r\n    // 获取余额信息 [代币总和 代币价格 合约余额 合约金币 用户余额 用户金币]\r\n    function getBalanceInfo() public view returns (\r\n        uint, uint, uint, uint, uint, uint) {\r\n        return (tokenTotal, tokenPrice,\r\n        balanceTokens, address(this).balance,\r\n        balances[msg.sender], msg.sender.balance);\r\n    }\r\n\r\n    // 买入代币\r\n    function buy() public payable {\r\n        uint tokensToBuy = msg.value / tokenPrice;\r\n        require(tokensToBuy <= balanceTokens); // 合约代币是否足够\r\n        // 更新信息\r\n        balances[msg.sender] += tokensToBuy;\r\n        balanceTokens -= tokensToBuy;\r\n        emit buySuccess(msg.sender, tokensToBuy);\r\n    }\r\n\r\n    // 卖出代币\r\n    function sell(uint tokensToSell) public {\r\n        require(tokensToSell <= balances[msg.sender]); // 用户代币是否足够\r\n        // 更新信息\r\n        uint total = tokensToSell * tokenPrice;\r\n        balances[msg.sender] -= tokensToSell;\r\n        balanceTokens += tokensToSell;\r\n        msg.sender.transfer(total);\r\n        emit sellSuccess(msg.sender, tokensToSell);\r\n    }\r\n}\r\n// 商店系统\r\ncontract Store is Token {\r\n    constructor(uint _tokens, uint _tokenPrice) public {\r\n        tokenTotal = _tokens;       // 100000\r\n        tokenPrice = _tokenPrice;   // 100000000000000000\r\n        balanceTokens = tokenTotal; // 100000\r\n    }\r\n\r\n    // 用户\r\n    struct User {\r\n        uint[] purchasedProducts;  // 已购买的商品\r\n        uint[] publishedProducts;  // 已发布的商品\r\n    }\r\n\r\n    // 商品\r\n    struct Product {\r\n        address owner;  // 所有者\r\n        string name;    // 商品名\r\n        string style;   // 类型\r\n        string intro;   // 简介\r\n        string rules;   // 玩法\r\n        uint price;     // 价格\r\n        uint sales;     // 销量\r\n        uint score;     // 评分\r\n        uint date;      // 日期\r\n        string cover;   // 封面 (ipfs)\r\n        string file;    // 文件 (ipfs)\r\n\r\n        uint clen;                          // 评价数量\r\n        mapping(uint=>Comment) comments;    // 评价列表\r\n    }\r\n\r\n    // 评价\r\n    struct Comment {\r\n        address buyer;  // 购买者\r\n        uint date;      // 日期\r\n        uint score;     // 评分\r\n        string content; // 评论\r\n    }\r\n\r\n    Product[] products;\r\n    mapping(address=>User) userPool;\r\n\r\n    event publishSuccess(\r\n        uint id, string name, string style, string intro, string rules,\r\n        uint price, uint date, string cover, string file);\r\n    event purchaseSuccess(uint id, address addr, uint price);\r\n    event evaluateSuccess(uint id, address addr, uint score);\r\n\r\n    // 获取已经购买的商品列表\r\n    function getPurchasedProducts() public view returns (uint[] memory) {\r\n        return userPool[msg.sender].purchasedProducts;\r\n    }\r\n\r\n    // 获取已经发布的商品列表\r\n    function getPublishedProducts() public view returns (uint[] memory) {\r\n        return userPool[msg.sender].publishedProducts;\r\n    }\r\n\r\n    // 获取商品数量\r\n    function getProductLength() public view returns (uint) {\r\n        return products.length;\r\n    }\r\n\r\n    // 获取评价数量\r\n    function getCommentLength(uint id) public view returns (uint) {\r\n        return products[id].clen;\r\n    }\r\n\r\n    // 获取商品信息\r\n    function getProductInfo(uint id) public view returns (\r\n        address, string memory, string memory, string memory, string memory, uint, uint, uint, uint, string memory) {\r\n        require(id < products.length);\r\n        // 获取商品\r\n        Product storage g = products[id];\r\n        return (g.owner, g.name, g.style, g.intro, g.rules,\r\n        g.price, g.sales, g.score, g.date, g.cover);\r\n    }\r\n\r\n    // 获取商品文件\r\n    function getProductFile(uint id) public view returns (string memory) {\r\n        require(id < products.length);\r\n        // 获取商品\r\n        Product storage g = products[id];\r\n        require(g.owner == msg.sender || isPurchased(id)); // 限制条件\r\n        return (g.file);\r\n    }\r\n\r\n    // 获得评价信息\r\n    function getCommentInfo(uint gid, uint cid) public view returns (\r\n        address, uint, uint, string memory) {\r\n        require(gid < products.length);\r\n        require(cid < products[gid].clen);\r\n        // 获取评价\r\n        Comment storage c = products[gid].comments[cid];\r\n        return (c.buyer, c.date, c.score, c.content);\r\n    }\r\n\r\n    // 是否已经购买 通过遍历实现\r\n    function isPurchased(uint id) public view returns (bool) {\r\n        User storage u = userPool[msg.sender];\r\n        for(uint i = 0; i < u.purchasedProducts.length; i++)\r\n            if(u.purchasedProducts[i] == id)\r\n                return true; // 已经购买\r\n        return false; // 尚未购买\r\n    }\r\n\r\n    // 是否已经评价 通过遍历实现\r\n    function isEvaluated(uint id) public view returns (bool) {\r\n        Product storage g = products[id];\r\n        for(uint i = 0; i < g.clen; i++)\r\n            if(g.comments[i].buyer == msg.sender)\r\n                return true; // 已经评价\r\n        return false; // 尚未评价\r\n    }\r\n\r\n    // 发布商品\r\n    function publish(\r\n        string memory name, string memory style, string memory intro, string memory rules,\r\n        uint price, string memory cover, string memory file) public {\r\n        uint id = products.length;\r\n        // 创建合约\r\n        Product memory g = Product(msg.sender, name, style, intro, rules,\r\n            price, 0, 0, now, cover, file, 0); // clen = 0\r\n\r\n        // 记录发布\r\n        products.push(g);\r\n        userPool[msg.sender].publishedProducts.push(id);\r\n\r\n        emit publishSuccess(id, name, style, intro, rules, price, g.date, cover, file);\r\n    }\r\n\r\n    // 购买商品\r\n    function purchase(uint id) public {\r\n        require(id < products.length);\r\n        // 读取合约\r\n        Product storage g = products[id];\r\n        require(g.owner != msg.sender && !isPurchased(id)); // 限制条件\r\n        require(balances[msg.sender] >= g.price); // 合法条件\r\n\r\n        // 记录购买\r\n        balances[msg.sender] -= g.price;\r\n        balances[g.owner] += g.price;\r\n        g.sales++;\r\n        userPool[msg.sender].purchasedProducts.push(id);\r\n\r\n        emit purchaseSuccess(id, msg.sender, g.price);\r\n    }\r\n\r\n    // 评价商品\r\n    function evaluate(uint id, uint score, string memory content) public {\r\n        require(id < products.length);\r\n        // 读取合约\r\n        Product storage g = products[id];\r\n        require(g.owner != msg.sender && isPurchased(id) && !isEvaluated(id)); // 限制条件\r\n        require(0 <= score && score <= 10); // 合法条件\r\n\r\n        // 记录评价\r\n        g.score += score;\r\n        g.comments[g.clen++] = Comment(msg.sender, now, score, content);\r\n\r\n        emit evaluateSuccess(id, msg.sender, g.score);\r\n    }\r\n    function () external {\r\n        revert();\r\n    }\r\n}",
  "sourcePath": "D:/develop/Eshop/Eshop/contracts/Store.sol",
  "compiler": {
    "name": "solc",
    "version": "0.5.0+commit.1d4f565a.Emscripten.clang"
  },
  "schemaVersion": "3.0.2",
  "updatedAt": "2019-05-07T10:35:27.361Z",
  "devdoc": {
    "methods": {}
  },
  "userdoc": {
    "methods": {}
  }
}